:020000040800F2
:10000000005000203101000855010008550100088A
:1000100055010008550100085501000800000000C6
:100020000000000000000000000000005501000872
:1000300055010008000000005501000855010008A6
:100040005501000855010008550100085501000838
:100050005501000855010008550100085501000828
:100060005501000855010008550100085501000818
:100070005501000855010008550100085501000808
:1000800055010008550100085501000855010008F8
:1000900055010008550100085501000855010008E8
:1000A00055010008550100085501000855010008D8
:1000B000D30100085501000855010008550100084A
:1000C00055010008550100085501000855010008B8
:1000D00055010008550100085501000855010008A8
:1000E00055010008550100080000000055010008F6
:1000F0005501000855010008550100085501000888
:100100005501000855010008550100085501000877
:100110005501000855010008550100085501000867
:100120005501000855010008550100085501000857
:1001300000F01CF800F063F80848094942F2107218
:100140000A800268012AFCD14FF000020A80026096
:10015000044BF2E7044E366870470000000200428C
:100160002C000040EFBEADDE04ED00E07FB54FF0A7
:1001700001003C493C4A3D4B3D4C106402F14405B2
:1001800000F014F80D683B4E45EA06050D6020614D
:100190006060106602F1640500F008F8586003F131
:1001A0000C0500F003F8BDE87F4070471CB54FF028
:1001B000010303EB0333013B06D02C6814F0010F5D
:1001C000F9D0BDE81C4070474FF0FF36BDE81C4039
:1001D000704707B54FF0805027490A6802421CBF9C
:1001E0002549086000BF2548016801F1010101604F
:1001F000234881EA01010160BDE8074070470FB55F
:100200004FF001001F4908604FF084411E4A4860CA
:1002100088601E4A4FF0000313601D4A48F69F4352
:1002200013604FF0844108604FF000004860BDE863
:100230000F4070470FB51748104A81EA010111605D
:100240004FF001010368002B06D120B4FFF7D7FF60
:100250000D4218BF016020BC1168A942FCD1BDE865
:100260000F407047041002400000424280004242AA
:100270000000444200841D0080E200E004000020F1
:100280000002004280034242800100422C000040F4
:080290002800004000000020DE
:0400000508000000EF
:00000001FF
