:020000040800F2
:1000000000500020510600086B0700086B0700082D
:100010006B0700086B0700086B0700080000000072
:100020000000000000000000000000006B07000856
:100030006B070008000000006B0700086B07000852
:100040006B0700086B0700086B070008BF03000878
:100050006B0700086B070008CB050008DF050008E8
:10006000F3050008070600081B0600086B070008D8
:100070006B0700086B0700086B0700086B07000898
:100080006B0700086B0700086B0700086B07000888
:100090006B0700086B0700086B0700086B07000878
:1000A0006B0700086B0700086B0700086B07000868
:1000B0006B0700086B0700086B0700086B07000858
:1000C0006B0700086B0700086B0700086B07000848
:1000D0006B0700086B0700086B0700086B07000838
:1000E0006B0700086B070008000000006B070008A2
:1000F0006B0700086B0700086B0700086B07000818
:100100006B0700086B0700086B0700086B07000807
:100110006B0700086B0700086B0700086B070008F7
:100120006B0700086B0700086B0700086B070008E7
:100130001FB54FF00101CE4A11605160CD4A1160E8
:10014000CD4A13688B42FCD1BDE81F4070473FB5D4
:100150004FF00101C948016000F1040500F050FBB7
:100160005CBF016211E0C64A1268012A0CD1C54B7E
:100170001C68012CFCD443F8041C01624162C24C8F
:100180004FF22345256000E04162BE4B1C68012C04
:10019000FCD443F8041CBC4C47F6FF75256085EA87
:1001A000050543F8045C1C68012CFCD4C163BDE860
:1001B0003F4070470FB5B54D2D68B549B5FBF1F21D
:1001C00001FB02F2A5EB02054FF46161B5FBF1F210
:1001D000B04B1A7001FB02F2A5EB02054FF03C0197
:1001E000B5FBF1F2AC4B1A7001FB02F2A5EB020574
:1001F000AA4B1D70BDE80F4070470FB585EA050595
:10020000A44800784FF4616100FB01F5A248007832
:100210004FF03C0100FB01F31D44A0480078054469
:100220009A480560BDE80F4070471FB59C4A127898
:100230004FF00C03C2F10E0090FBF3F099490968EE
:1002400001F59651A1EB000100FB03F3A3F10303B9
:100250001A44954B1B7808B4944C10B44FF0990392
:100260004FF0050402FB03F303F1020393FBF4F3E5
:1002700008B440F26D1301FB03F308B44FF004031C
:1002800091FBF3F308B46FF0630391FBF3F308B44D
:100290004FF4C87391FBF3F54FF0060310BC2544EF
:1002A000013BFBD1824B1B68A5EB0305814B1D6015
:1002B000BDE81F40704703B5FFF7B7FF744805FB63
:1002C00000F0FFF79AFF054470480560BDE8034061
:1002D00070470FB56D4800686D49B0FBF1F0744987
:1002E000096801447448026811444FF0040201FB9C
:1002F00002F303F103034468B3FBF4F308B404FB13
:1003000003F3B3FBF2F3A1EB030101FB02F303F1EF
:1003100003038468B3FBF4F303FB04F4B4FBF2F4CB
:10032000A1EB0401047B4FF0050201FB02F505F18E
:100330000205B5FBF4F505FB04F404F10204B4FB7B
:10034000F2F4A1EB0401584A11704FF00A04B5FB16
:10035000F4F44FF00C0204FB02F205F10305A5EBE7
:1003600002054F4A15704FF0640120BC05FB01F1F6
:100370001944A1F5965121444A4A1160BDE80F4045
:1003800070471FB54FF000004FF001013D4A136860
:10039000012BFCD442F8041C52F8043C1368474B70
:1003A0001D804FEA154523F8045C42F8040C52F80E
:1003B000040C1368012BFCD4BDE81F4070473FB507
:1003C0004FF000004FF001013D4D2E4A1368012B04
:1003D000FCD442F8041C52F8143C002B0FD02B68BC
:1003E00083F001032B60374B1C684FEA0444334B06
:1003F0001B8844EA0304254B1C60FFF7DBFE52F820
:10040000103C002BFFD052F80C3C002BFFD042F8E0
:10041000140C42F8100C42F80C0C42F8040C13684F
:10042000012BFCD4BDE83F4070473FB54FF00000C2
:100430004FF00101134A1368012BFCD442F8041C4D
:1004400004B4214A11605160916004BC42F8040C6C
:100450001368012BFCD41D4A136843F00803136092
:100460001B4A4FF01003D360BDE83F4070470000C7
:10047000EC03424220000E428C000542000442423E
:1004800044004242940005420C2800400D00002028
:100490008051010002000020010000200000002027
:1004A000040000200500002003000020D382FFFF8D
:1004B0002409000809000020280900081C28004021
:1004C000B4012242182800400000054200E100E08B
:1004D00000E400E00FB556484FF0010102688A427F
:1004E00018BF016005F102024FEA82028150BDE8A7
:1004F0000F4070470FB54E484FF0010105F1020261
:100500004FEA82028150BDE80F4070477FB5494DE8
:100510004FF4806606FB04F4254405F104041E46EE
:10052000082B02D4A3F1080325464FEA83034FEAC0
:10053000810140EA010000FA03F06FF00F04C3F1FB
:10054000200364FA03F4296801EA040141EA000186
:10055000296005F10C044FEA44144FEA860634443E
:100560004FF0844634442260BDE87F4070473FB579
:10057000042827D5304A6FF0010400F10603C3F1C7
:10058000200364FA03F44FF0010565FA03F51368DC
:1005900003EA040343EA0503136000F106034FF086
:1005A0002004264DEC544FF00102254B4FEA800009
:1005B0001A50914204D0234B1A50BDE83F40704777
:1005C000214B1A50BDE83F4070473FB54FF0B1078F
:1005D0004FF001011D480160BDE83F4070473FB545
:1005E0004FF0B2074FF0020118480160BDE83F40EC
:1005F00070473FB54FF0B3074FF004011348016057
:10060000BDE83F4070473FB54FF0B4074FF00801D9
:100610000E480160BDE83F4070473FB54FF0B50759
:100620004FF0100109480160BDE83F4070470000ED
:10063000000342420008014000E100E000E400E065
:100640000080204280812042008120421404014029
:1006500000F0AEF84FF000014FF00100484A106082
:10066000484A1060FFF764FD47484FF00A010170E7
:1006700046484FF00C010170454840F2E2710160BC
:10068000444881EA0101017043484FF02A0101709A
:1006900042484FF008010170FFF70DFE4048016825
:1006A0000A4650F8041C4FEA014142EA0102AA42FC
:1006B00001D5FFF766FEFFF74AFDFFF7B6FE4FF0E4
:1006C0000005FFF707FF4FF004054FF000004FF063
:1006D00002014FF000024FF000034FF00004FFF75B
:1006E00015FF03F10103A5F10105002DF7D14FF02E
:1006F00004054FF000004FF00101FFF738FF00F153
:100700000100A5F10105002DF7D14FF00A0523489E
:100710000078B0FBF5F303FB05F4A0EB04004FEA0F
:10072000031340EA03004FEA00401B490978B1FB7C
:10073000F5F303FB05F4A1EB04014FEA031341EACF
:1007400003014FEA0121134A1278B2FBF5F303FBD0
:1007500005F4A2EB04024FEA031342EA030240EA63
:10076000010040EA02000646CFE703B50D4E3668A9
:1007700006F0FF06A6F11006BDE803407047000032
:1007800010034242D4002242030000200400002053
:1007900005000020000000200100002002000020D1
:1007A0001C28004004ED00E00000000000000000F4
:1007B0007FB580EA00004A494A4A01F8010B8A42A3
:1007C000FBD14FF001004849484A494B494C10645D
:1007D00002F1440500F014F80D68474E45EA06059D
:1007E0000D6020616060106602F1640500F008F899
:1007F000586003F10C0500F003F8BDE87F40704736
:100800001CB54FF0010303EB0333013B06D02C680A
:1008100014F0010FF9D0BDE81C4070474FF0FF35D0
:10082000BDE81C40704707B54FF0805033490A6857
:1008300002421CBF3149086000BF3148016801F124
:10084000010101602F4881EA01010160BDE8074014
:1008500070470FB54FF001002B4908604FF08441FD
:100860002A4A486088601060D061294A4FF6FF73B9
:100870001360284A4FF0000313604FF08050264960
:100880000B6843EA00030B6024494FF0100201F1AA
:100890001C010A704FF084414FF0010008604FF0D6
:1008A000000048604FF080400668BDE80F40704788
:1008B0000FB51B48124A81EA010111604FF0010196
:1008C0000368002B06D120B4FFF7C3FF0D4218BF09
:1008D000016020BC1168A942FCD1BDE80F407047FF
:1008E000000000201D0000200410024000004242D1
:1008F000800042420000444200841D0080E200E08B
:1009000015000020000200428003424280010042A4
:100910002C0000402800004000E100E000E400E07E
:0409200011000020A2
:10092400088225002D7D0000B13A0200B5050000C3
:040934009900000026
:0400000508000000EF
:00000001FF
